# If message has incorrect checksum, it should be ignored

iCONNECT
I8=FIX.4.2|35=A|34=1|49=TW|52=<TIME>|56=ISLD|98=0|108=30|
E8=FIX.4.2|9=57|35=A|34=1|49=ISLD|52=00000000-00:00:00|56=TW|98=0|108=30|10=7|

# Incorrect checksum
R8=FIX.4.2|35=0|34=2|49=TW|52=<TIME>|56=ISLD|10=256|
# Correct checksum
R8=FIX.4.2|35=0|34=2|49=TW|52=<TIME>|56=ISLD|
# Incorrect checksum
R8=FIX.4.2|35=D|34=3|49=TW|52=<TIME>|56=ISLD|11=ID|21=3|40=1|54=1|55=INTC|10=256|
R8=FIX.4.2|35=0|34=4|49=TW|52=<TIME>|56=ISLD|

# Resend request for missed message
E8=FIX.4.2|9=54|35=2|34=2|49=ISLD|52=00000000-00:00:00|56=TW|7=3|16=3|10=0|
R8=FIX.4.2|35=D|34=3|49=TW|52=<TIME>|56=ISLD|11=ID|21=3|40=1|54=1|55=INTC|112=<TIME>|
iDISCONNECT