# If message sequence number is too high, send a resend request for
# missing messages

iCONNECT
I8=FIX.4.2|35=A|34=1|49=TW|52=<TIME>|56=ISLD|98=0|108=30|
E8=FIX.4.2|9=57|35=A|34=1|49=ISLD|52=00000000-00:00:00|56=TW|98=0|108=30|10=0|
R8=FIX.4.2|35=0|34=2|49=TW|52=<TIME>|56=ISLD|
R8=FIX.4.2|35=0|34=3|49=TW|52=<TIME>|56=ISLD|
R8=FIX.4.2|35=0|34=4|49=TW|52=<TIME>|56=ISLD|

# Sending message 10 when last message send was 4
R8=FIX.4.2|35=0|34=10|49=TW|52=<TIME>|56=ISLD|

# Resend request for messages 5 to 9
E8=FIX.4.2|9=54|35=2|34=2|49=ISLD|52=00000000-00:00:00|56=TW|7=5|16=9|10=0|
iDISCONNECT